{
  "contractName": "BasicTradeSubContract",
  "abi": [
    {
      "constant": true,
      "inputs": [
        {
          "name": "data",
          "type": "bytes32[]"
        }
      ],
      "name": "getSigner",
      "outputs": [
        {
          "name": "",
          "type": "address"
        }
      ],
      "payable": false,
      "stateMutability": "view",
      "type": "function"
    },
    {
      "constant": false,
      "inputs": [
        {
          "name": "data",
          "type": "bytes32[]"
        }
      ],
      "name": "verify",
      "outputs": [
        {
          "name": "",
          "type": "bool"
        }
      ],
      "payable": false,
      "stateMutability": "nonpayable",
      "type": "function"
    },
    {
      "constant": false,
      "inputs": [
        {
          "name": "signer",
          "type": "address"
        },
        {
          "name": "orderHash",
          "type": "bytes32"
        },
        {
          "name": "v",
          "type": "uint8"
        },
        {
          "name": "r",
          "type": "bytes32"
        },
        {
          "name": "s",
          "type": "bytes32"
        }
      ],
      "name": "checkSignature",
      "outputs": [
        {
          "name": "",
          "type": "bool"
        }
      ],
      "payable": false,
      "stateMutability": "nonpayable",
      "type": "function"
    },
    {
      "constant": true,
      "inputs": [],
      "name": "takerArguments",
      "outputs": [
        {
          "name": "",
          "type": "string"
        }
      ],
      "payable": false,
      "stateMutability": "view",
      "type": "function"
    },
    {
      "constant": true,
      "inputs": [],
      "name": "makerArguments",
      "outputs": [
        {
          "name": "",
          "type": "string"
        }
      ],
      "payable": false,
      "stateMutability": "view",
      "type": "function"
    },
    {
      "inputs": [
        {
          "name": "_makerArguments",
          "type": "string"
        },
        {
          "name": "_takerArguments",
          "type": "string"
        }
      ],
      "payable": false,
      "stateMutability": "nonpayable",
      "type": "constructor"
    },
    {
      "anonymous": false,
      "inputs": [
        {
          "indexed": false,
          "name": "",
          "type": "uint256"
        },
        {
          "indexed": false,
          "name": "",
          "type": "uint256"
        },
        {
          "indexed": false,
          "name": "",
          "type": "uint256"
        },
        {
          "indexed": false,
          "name": "",
          "type": "uint256"
        }
      ],
      "name": "Calc",
      "type": "event"
    },
    {
      "constant": false,
      "inputs": [
        {
          "name": "makerData",
          "type": "bytes32[]"
        },
        {
          "name": "takerData",
          "type": "bytes32[]"
        }
      ],
      "name": "participate",
      "outputs": [
        {
          "name": "",
          "type": "bool"
        }
      ],
      "payable": false,
      "stateMutability": "nonpayable",
      "type": "function"
    },
    {
      "constant": false,
      "inputs": [
        {
          "name": "makerData",
          "type": "bytes32[]"
        }
      ],
      "name": "getOrderHash",
      "outputs": [
        {
          "name": "",
          "type": "bytes32"
        }
      ],
      "payable": false,
      "stateMutability": "nonpayable",
      "type": "function"
    },
    {
      "constant": false,
      "inputs": [
        {
          "name": "makerData",
          "type": "bytes32[]"
        },
        {
          "name": "takerData",
          "type": "bytes32[]"
        }
      ],
      "name": "sendFromMaker",
      "outputs": [
        {
          "name": "",
          "type": "bool"
        }
      ],
      "payable": false,
      "stateMutability": "nonpayable",
      "type": "function"
    },
    {
      "constant": false,
      "inputs": [
        {
          "name": "makerData",
          "type": "bytes32[]"
        },
        {
          "name": "takerData",
          "type": "bytes32[]"
        }
      ],
      "name": "sendFromTaker",
      "outputs": [
        {
          "name": "",
          "type": "bool"
        }
      ],
      "payable": false,
      "stateMutability": "nonpayable",
      "type": "function"
    }
  ],
  "bytecode": "0x60806040523480156200001157600080fd5b506040516200116b3803806200116b83398101806040528101908080518201929190602001805182019291905050508160009080519060200190620000589291906200007a565b508060019080519060200190620000719291906200007a565b50505062000129565b828054600181600116156101000203166002900490600052602060002090601f016020900481019282601f10620000bd57805160ff1916838001178555620000ee565b82800160010185558215620000ee579182015b82811115620000ed578251825591602001919060010190620000d0565b5b509050620000fd919062000101565b5090565b6200012691905b808211156200012257600081600090555060010162000108565b5090565b90565b61103280620001396000396000f300608060405260043610610099576000357c0100000000000000000000000000000000000000000000000000000000900463ffffffff16806312e78b861461009e57806365e2cd991461015f578063859bc7e41461020557806397611638146102c65780639f46e9d714610344578063df3ee9b7146103d6578063e5a4aaa114610466578063e79d2ed8146104e8578063ea9960d814610578575b600080fd5b3480156100aa57600080fd5b506101456004803603810190808035906020019082018035906020019080806020026020016040519081016040528093929190818152602001838360200280828437820191505050505050919291929080359060200190820180359060200190808060200260200160405190810160405280939291908181526020018383602002808284378201915050505050509192919290505050610639565b604051808215151515815260200191505060405180910390f35b34801561016b57600080fd5b506101c360048036038101908080359060200190820180359060200190808060200260200160405190810160405280939291908181526020018383602002808284378201915050505050509192919290505050610893565b604051808273ffffffffffffffffffffffffffffffffffffffff1673ffffffffffffffffffffffffffffffffffffffff16815260200191505060405180910390f35b34801561021157600080fd5b506102ac60048036038101908080359060200190820180359060200190808060200260200160405190810160405280939291908181526020018383602002808284378201915050505050509192919290803590602001908201803590602001908080602002602001604051908101604052809392919081815260200183836020028082843782019150505050505091929192905050506108b9565b604051808215151515815260200191505060405180910390f35b3480156102d257600080fd5b5061032a60048036038101908080359060200190820180359060200190808060200260200160405190810160405280939291908181526020018383602002808284378201915050505050509192919290505050610a29565b604051808215151515815260200191505060405180910390f35b34801561035057600080fd5b506103bc600480360381019080803573ffffffffffffffffffffffffffffffffffffffff1690602001909291908035600019169060200190929190803560ff16906020019092919080356000191690602001909291908035600019169060200190929190505050610ab4565b604051808215151515815260200191505060405180910390f35b3480156103e257600080fd5b506103eb610bc0565b6040518080602001828103825283818151815260200191508051906020019080838360005b8381101561042b578082015181840152602081019050610410565b50505050905090810190601f1680156104585780820380516001836020036101000a031916815260200191505b509250505060405180910390f35b34801561047257600080fd5b506104ca60048036038101908080359060200190820180359060200190808060200260200160405190810160405280939291908181526020018383602002808284378201915050505050509192919290505050610c5e565b60405180826000191660001916815260200191505060405180910390f35b3480156104f457600080fd5b506104fd610ddc565b6040518080602001828103825283818151815260200191508051906020019080838360005b8381101561053d578082015181840152602081019050610522565b50505050905090810190601f16801561056a5780820380516001836020036101000a031916815260200191505b509250505060405180910390f35b34801561058457600080fd5b5061061f6004803603810190808035906020019082018035906020019080806020026020016040519081016040528093929190818152602001838360200280828437820191505050505050919291929080359060200190820180359060200190808060200260200160405190810160405280939291908181526020018383602002808284378201915050505050509192919290505050610e7a565b604051808215151515815260200191505060405180910390f35b60008061069b84600481518110151561064e57fe5b906020019060200201516001900484600081518110151561066b57fe5b906020019060200201516001900486600281518110151561068857fe5b9060200190602002015160019004610f88565b90507ff7088c48e56fdb65e91418b6c2d0a559cee3e3ab18bf6891e29ab801851d4d8d8460048151811015156106cd57fe5b90602001906020020151600190048460008151811015156106ea57fe5b906020019060200201516001900486600281518110151561070757fe5b9060200190602002015160019004846040518085815260200184815260200183815260200182815260200194505050505060405180910390a183600381518110151561074f57fe5b906020019060200201516001900473ffffffffffffffffffffffffffffffffffffffff166323b872dd3286600081518110151561078857fe5b9060200190602002015160019004846040518463ffffffff167c0100000000000000000000000000000000000000000000000000000000028152600401808473ffffffffffffffffffffffffffffffffffffffff1673ffffffffffffffffffffffffffffffffffffffff1681526020018373ffffffffffffffffffffffffffffffffffffffff1673ffffffffffffffffffffffffffffffffffffffff1681526020018281526020019350505050602060405180830381600087803b15801561084f57600080fd5b505af1158015610863573d6000803e3d6000fd5b505050506040513d602081101561087957600080fd5b810190808051906020019092919050505091505092915050565b60008160008151811015156108a457fe5b90602001906020020151600190049050919050565b60008260018151811015156108ca57fe5b906020019060200201516001900473ffffffffffffffffffffffffffffffffffffffff166323b872dd84600081518110151561090257fe5b90602001906020020151600190043285600081518110151561092057fe5b90602001906020020151600190046040518463ffffffff167c0100000000000000000000000000000000000000000000000000000000028152600401808473ffffffffffffffffffffffffffffffffffffffff1673ffffffffffffffffffffffffffffffffffffffff1681526020018373ffffffffffffffffffffffffffffffffffffffff1673ffffffffffffffffffffffffffffffffffffffff1681526020018281526020019350505050602060405180830381600087803b1580156109e657600080fd5b505af11580156109fa573d6000803e3d6000fd5b505050506040513d6020811015610a1057600080fd5b8101908080519060200190929190505050905092915050565b600080600080846003865103815181101515610a4157fe5b90602001906020020151600190049250846002865103815181101515610a6357fe5b906020019060200201519150846001865103815181101515610a8157fe5b906020019060200201519050610aaa610a9986610893565b610aa287610c5e565b858585610ab4565b9350505050919050565b60008060008660405180807f19457468657265756d205369676e6564204d6573736167653a0a333200000000815250601c01826000191660001916815260200191505060405180910390209150600182878787604051600081526020016040526040518085600019166000191681526020018460ff1660ff1681526020018360001916600019168152602001826000191660001916815260200194505050505060206040516020810390808403906000865af1158015610b78573d6000803e3d6000fd5b5050506020604051035190508073ffffffffffffffffffffffffffffffffffffffff168873ffffffffffffffffffffffffffffffffffffffff16149250505095945050505050565b60018054600181600116156101000203166002900480601f016020809104026020016040519081016040528092919081815260200182805460018160011615610100020316600290048015610c565780601f10610c2b57610100808354040283529160200191610c56565b820191906000526020600020905b815481529060010190602001808311610c3957829003601f168201915b505050505081565b6000806000806000856001815181101515610c7557fe5b90602001906020020151600190049350856002815181101515610c9457fe5b90602001906020020151600190049250856003815181101515610cb357fe5b90602001906020020151600190049150856004815181101515610cd257fe5b90602001906020020151600190049050610ceb86610893565b84848484604051808673ffffffffffffffffffffffffffffffffffffffff1673ffffffffffffffffffffffffffffffffffffffff166c010000000000000000000000000281526014018573ffffffffffffffffffffffffffffffffffffffff1673ffffffffffffffffffffffffffffffffffffffff166c010000000000000000000000000281526014018481526020018373ffffffffffffffffffffffffffffffffffffffff1673ffffffffffffffffffffffffffffffffffffffff166c01000000000000000000000000028152601401828152602001955050505050506040518091039020945050505050919050565b60008054600181600116156101000203166002900480601f016020809104026020016040519081016040528092919081815260200182805460018160011615610100020316600290048015610e725780601f10610e4757610100808354040283529160200191610e72565b820191906000526020600020905b815481529060010190602001808311610e5557829003601f168201915b505050505081565b6000806000610e8885610a29565b1515610e9357600080fd5b846002815181101515610ea257fe5b90602001906020020151600190049150836000815181101515610ec157fe5b90602001906020020151600190049050818160026000610ee089610c5e565b60001916600019168152602001908152602001600020540111151515610f0557600080fd5b610f0f85856108b9565b1515610f1a57600080fd5b610f248585610639565b1515610f2f57600080fd5b8060026000610f3d88610c5e565b60001916600019168152602001908152602001600020540160026000610f6288610c5e565b600019166000191681526020019081526020016000208190555060019250505092915050565b6000610faf82610fa18587610fb890919063ffffffff16565b610ff090919063ffffffff16565b90509392505050565b600080831415610fcb5760009050610fea565b8183029050818382811515610fdc57fe5b04141515610fe657fe5b8090505b92915050565b60008183811515610ffd57fe5b049050929150505600a165627a7a72305820d2e6bb10330c25e4d39cc28c0c75d9e5fd4d2d4cf3f4b10ed39dff9bb980035a0029",
  "source": "pragma solidity ^0.4.24;\n\nimport \"./Token.sol\";\nimport \"paradigm-solidity/contracts/SubContract.sol\";\nimport \"paradigm-solidity/contracts/SignatureVerification.sol\";\n\ncontract BasicTradeSubContract is SubContract, SignatureVerification {\n\n    mapping(bytes32 => uint) bought;\n\n    event Calc(uint, uint, uint, uint);\n\n    constructor(string _makerArguments, string _takerArguments) {\n        makerArguments = _makerArguments;\n        takerArguments = _takerArguments;\n    }\n\n    function participate(bytes32[] makerData, bytes32[] takerData) public returns (bool) {\n      // 1. Standard validation\n      require(verify(makerData));\n\n      // 2. Contract specific validation\n      uint signerTokenCount = uint(makerData[2]);\n      uint signerTokenCountToTake = uint(takerData[0]);\n        require(bought[getOrderHash(makerData)] + signerTokenCountToTake <= signerTokenCount);\n\n        // transfer maker -> taker\n        require(sendFromMaker(makerData, takerData));\n        // transfer taker -> maker\n        require(sendFromTaker(makerData, takerData));\n        bought[getOrderHash(makerData)] = bought[getOrderHash(makerData)] + signerTokenCountToTake;\n\n      return true;\n    }\n\n    function getOrderHash(bytes32[] makerData) returns (bytes32) {\n      address signerToken = address(makerData[1]);\n      uint signerTokenCount = uint(makerData[2]);\n      address buyerToken = address(makerData[3]);\n      uint buyerTokenCount = uint(makerData[4]);\n      return keccak256(getSigner(makerData), signerToken, signerTokenCount, buyerToken, buyerTokenCount);\n    }\n\n    function sendFromMaker(bytes32[] makerData, bytes32[] takerData) returns (bool) {\n//        TODO: Shouldn't use tx.origin?\n        return Token(address(makerData[1])).transferFrom(address(makerData[0]), address(tx.origin), uint(takerData[0]));\n    }\n\n    function sendFromTaker(bytes32[] makerData, bytes32[] takerData) returns (bool) {\n        uint tokensTakerCount = ratioFor(uint(makerData[4]), uint(takerData[0]), uint(makerData[2]));\n\n        emit Calc(uint(makerData[4]), uint(takerData[0]), uint(makerData[2]), tokensTakerCount);\n\n        return Token(address(makerData[3])).transferFrom(address(tx.origin), address(makerData[0]), tokensTakerCount);\n    }\n}\n",
  "sourcePath": "/Users/Freydal/RubymineProjects/ParadigmTestContracts/contracts/BasicTradeSubContract.sol",
  "compiler": {
    "name": "solc",
    "version": "0.4.24+commit.e67f0147.Emscripten.clang"
  },
  "schemaVersion": "2.0.1",
  "updatedAt": "2018-08-28T15:15:29.403Z"
}